{
  "contractName": "CBTToken",
  "abi": [
    {
      "inputs": [],
      "stateMutability": "nonpayable",
      "type": "constructor"
    },
    {
      "anonymous": false,
      "inputs": [
        {
          "indexed": true,
          "internalType": "address",
          "name": "owner",
          "type": "address"
        },
        {
          "indexed": true,
          "internalType": "address",
          "name": "spender",
          "type": "address"
        },
        {
          "indexed": false,
          "internalType": "uint256",
          "name": "value",
          "type": "uint256"
        }
      ],
      "name": "Approval",
      "type": "event"
    },
    {
      "anonymous": false,
      "inputs": [
        {
          "indexed": true,
          "internalType": "address",
          "name": "user",
          "type": "address"
        },
        {
          "indexed": false,
          "internalType": "bool",
          "name": "value",
          "type": "bool"
        }
      ],
      "name": "BlacklistUpdated",
      "type": "event"
    },
    {
      "anonymous": false,
      "inputs": [
        {
          "indexed": true,
          "internalType": "address",
          "name": "previousOwner",
          "type": "address"
        },
        {
          "indexed": true,
          "internalType": "address",
          "name": "newOwner",
          "type": "address"
        }
      ],
      "name": "OwnershipTransferred",
      "type": "event"
    },
    {
      "anonymous": false,
      "inputs": [
        {
          "indexed": true,
          "internalType": "address",
          "name": "from",
          "type": "address"
        },
        {
          "indexed": true,
          "internalType": "address",
          "name": "to",
          "type": "address"
        },
        {
          "indexed": false,
          "internalType": "uint256",
          "name": "value",
          "type": "uint256"
        }
      ],
      "name": "Transfer",
      "type": "event"
    },
    {
      "inputs": [
        {
          "internalType": "address",
          "name": "owner",
          "type": "address"
        },
        {
          "internalType": "address",
          "name": "spender",
          "type": "address"
        }
      ],
      "name": "allowance",
      "outputs": [
        {
          "internalType": "uint256",
          "name": "",
          "type": "uint256"
        }
      ],
      "stateMutability": "view",
      "type": "function"
    },
    {
      "inputs": [
        {
          "internalType": "address",
          "name": "spender",
          "type": "address"
        },
        {
          "internalType": "uint256",
          "name": "amount",
          "type": "uint256"
        }
      ],
      "name": "approve",
      "outputs": [
        {
          "internalType": "bool",
          "name": "",
          "type": "bool"
        }
      ],
      "stateMutability": "nonpayable",
      "type": "function"
    },
    {
      "inputs": [
        {
          "internalType": "address",
          "name": "account",
          "type": "address"
        }
      ],
      "name": "balanceOf",
      "outputs": [
        {
          "internalType": "uint256",
          "name": "",
          "type": "uint256"
        }
      ],
      "stateMutability": "view",
      "type": "function"
    },
    {
      "inputs": [],
      "name": "decimals",
      "outputs": [
        {
          "internalType": "uint8",
          "name": "",
          "type": "uint8"
        }
      ],
      "stateMutability": "view",
      "type": "function"
    },
    {
      "inputs": [
        {
          "internalType": "address",
          "name": "spender",
          "type": "address"
        },
        {
          "internalType": "uint256",
          "name": "subtractedValue",
          "type": "uint256"
        }
      ],
      "name": "decreaseAllowance",
      "outputs": [
        {
          "internalType": "bool",
          "name": "",
          "type": "bool"
        }
      ],
      "stateMutability": "nonpayable",
      "type": "function"
    },
    {
      "inputs": [
        {
          "internalType": "address",
          "name": "spender",
          "type": "address"
        },
        {
          "internalType": "uint256",
          "name": "addedValue",
          "type": "uint256"
        }
      ],
      "name": "increaseAllowance",
      "outputs": [
        {
          "internalType": "bool",
          "name": "",
          "type": "bool"
        }
      ],
      "stateMutability": "nonpayable",
      "type": "function"
    },
    {
      "inputs": [
        {
          "internalType": "address",
          "name": "user",
          "type": "address"
        }
      ],
      "name": "isBlackListed",
      "outputs": [
        {
          "internalType": "bool",
          "name": "",
          "type": "bool"
        }
      ],
      "stateMutability": "view",
      "type": "function"
    },
    {
      "inputs": [],
      "name": "name",
      "outputs": [
        {
          "internalType": "string",
          "name": "",
          "type": "string"
        }
      ],
      "stateMutability": "view",
      "type": "function"
    },
    {
      "inputs": [],
      "name": "owner",
      "outputs": [
        {
          "internalType": "address",
          "name": "",
          "type": "address"
        }
      ],
      "stateMutability": "view",
      "type": "function"
    },
    {
      "inputs": [],
      "name": "renounceOwnership",
      "outputs": [],
      "stateMutability": "nonpayable",
      "type": "function"
    },
    {
      "inputs": [],
      "name": "symbol",
      "outputs": [
        {
          "internalType": "string",
          "name": "",
          "type": "string"
        }
      ],
      "stateMutability": "view",
      "type": "function"
    },
    {
      "inputs": [],
      "name": "totalSupply",
      "outputs": [
        {
          "internalType": "uint256",
          "name": "",
          "type": "uint256"
        }
      ],
      "stateMutability": "view",
      "type": "function"
    },
    {
      "inputs": [
        {
          "internalType": "address",
          "name": "recipient",
          "type": "address"
        },
        {
          "internalType": "uint256",
          "name": "amount",
          "type": "uint256"
        }
      ],
      "name": "transfer",
      "outputs": [
        {
          "internalType": "bool",
          "name": "",
          "type": "bool"
        }
      ],
      "stateMutability": "nonpayable",
      "type": "function"
    },
    {
      "inputs": [
        {
          "internalType": "address",
          "name": "sender",
          "type": "address"
        },
        {
          "internalType": "address",
          "name": "recipient",
          "type": "address"
        },
        {
          "internalType": "uint256",
          "name": "amount",
          "type": "uint256"
        }
      ],
      "name": "transferFrom",
      "outputs": [
        {
          "internalType": "bool",
          "name": "",
          "type": "bool"
        }
      ],
      "stateMutability": "nonpayable",
      "type": "function"
    },
    {
      "inputs": [
        {
          "internalType": "address",
          "name": "newOwner",
          "type": "address"
        }
      ],
      "name": "transferOwnership",
      "outputs": [],
      "stateMutability": "nonpayable",
      "type": "function"
    },
    {
      "inputs": [
        {
          "internalType": "address",
          "name": "user",
          "type": "address"
        },
        {
          "internalType": "bool",
          "name": "value",
          "type": "bool"
        }
      ],
      "name": "updateBlacklist",
      "outputs": [],
      "stateMutability": "nonpayable",
      "type": "function"
    },
    {
      "inputs": [
        {
          "internalType": "address",
          "name": "to",
          "type": "address"
        },
        {
          "internalType": "uint256",
          "name": "amount",
          "type": "uint256"
        }
      ],
      "name": "mint",
      "outputs": [],
      "stateMutability": "nonpayable",
      "type": "function"
    },
    {
      "inputs": [
        {
          "internalType": "address",
          "name": "from",
          "type": "address"
        },
        {
          "internalType": "uint256",
          "name": "amount",
          "type": "uint256"
        }
      ],
      "name": "burn",
      "outputs": [],
      "stateMutability": "nonpayable",
      "type": "function"
    }
  ],
  "bytecode": "0x60806040523480156200001157600080fd5b506040518060400160405280601181526020017f43727970746f2042616e6b20546f6b656e0000000000000000000000000000008152506040518060400160405280600381526020017f434254000000000000000000000000000000000000000000000000000000000081525081600390805190602001906200009692919062000493565b508060049080519060200190620000af92919062000493565b505050620000d2620000c6620000fe60201b60201c565b6200010660201b60201c565b620000f8620000e6620000fe60201b60201c565b64b347939400620001cc60201b60201c565b62000845565b600033905090565b6000600560009054906101000a900473ffffffffffffffffffffffffffffffffffffffff16905081600560006101000a81548173ffffffffffffffffffffffffffffffffffffffff021916908373ffffffffffffffffffffffffffffffffffffffff1602179055508173ffffffffffffffffffffffffffffffffffffffff168173ffffffffffffffffffffffffffffffffffffffff167f8be0079c531659141344cd1fd0a4f28419497f9722a3daafe3b4186f6b6457e060405160405180910390a35050565b600073ffffffffffffffffffffffffffffffffffffffff168273ffffffffffffffffffffffffffffffffffffffff1614156200023f576040517f08c379a0000000000000000000000000000000000000000000000000000000008152600401620002369062000656565b60405180910390fd5b62000253600083836200034560201b60201c565b8060026000828254620002679190620006a6565b92505081905550806000808473ffffffffffffffffffffffffffffffffffffffff1673ffffffffffffffffffffffffffffffffffffffff1681526020019081526020016000206000828254620002be9190620006a6565b925050819055508173ffffffffffffffffffffffffffffffffffffffff16600073ffffffffffffffffffffffffffffffffffffffff167fddf252ad1be2c89b69c2b068fc378daa952ba7f163c4a11628f55a4df523b3ef8360405162000325919062000678565b60405180910390a362000341600083836200043860201b60201c565b5050565b600081116200038b576040517f08c379a00000000000000000000000000000000000000000000000000000000081526004016200038290620005f0565b60405180910390fd5b6200039c836200043d60201b60201c565b15620003df576040517f08c379a0000000000000000000000000000000000000000000000000000000008152600401620003d69062000634565b60405180910390fd5b620003f0826200043d60201b60201c565b1562000433576040517f08c379a00000000000000000000000000000000000000000000000000000000081526004016200042a9062000612565b60405180910390fd5b505050565b505050565b6000600660008373ffffffffffffffffffffffffffffffffffffffff1673ffffffffffffffffffffffffffffffffffffffff16815260200190815260200160002060009054906101000a900460ff169050919050565b828054620004a1906200070d565b90600052602060002090601f016020900481019282620004c5576000855562000511565b82601f10620004e057805160ff191683800117855562000511565b8280016001018555821562000511579182015b8281111562000510578251825591602001919060010190620004f3565b5b50905062000520919062000524565b5090565b5b808211156200053f57600081600090555060010162000525565b5090565b600062000552601c8362000695565b91506200055f82620007a1565b602082019050919050565b60006200057960188362000695565b91506200058682620007ca565b602082019050919050565b6000620005a060168362000695565b9150620005ad82620007f3565b602082019050919050565b6000620005c7601f8362000695565b9150620005d4826200081c565b602082019050919050565b620005ea8162000703565b82525050565b600060208201905081810360008301526200060b8162000543565b9050919050565b600060208201905081810360008301526200062d816200056a565b9050919050565b600060208201905081810360008301526200064f8162000591565b9050919050565b600060208201905081810360008301526200067181620005b8565b9050919050565b60006020820190506200068f6000830184620005df565b92915050565b600082825260208201905092915050565b6000620006b38262000703565b9150620006c08362000703565b9250827fffffffffffffffffffffffffffffffffffffffffffffffffffffffffffffffff03821115620006f857620006f762000743565b5b828201905092915050565b6000819050919050565b600060028204905060018216806200072657607f821691505b602082108114156200073d576200073c62000772565b5b50919050565b7f4e487b7100000000000000000000000000000000000000000000000000000000600052601160045260246000fd5b7f4e487b7100000000000000000000000000000000000000000000000000000000600052602260045260246000fd5b7f43616e6e6f74207472616e73666572207a65726f20746f6b656e732e00000000600082015250565b7f5265636569766572206973206f6e20626c61636b6c6973740000000000000000600082015250565b7f53656e646572206973206f6e20626c61636b6c69737400000000000000000000600082015250565b7f45524332303a206d696e7420746f20746865207a65726f206164647265737300600082015250565b61228680620008556000396000f3fe608060405234801561001057600080fd5b50600436106101165760003560e01c80638da5cb5b116100a2578063a457c2d711610071578063a457c2d7146102cf578063a9059cbb146102ff578063dd62ed3e1461032f578063e47d60601461035f578063f2fde38b1461038f57610116565b80638da5cb5b1461025b5780639155e0831461027957806395d89b41146102955780639dc29fac146102b357610116565b8063313ce567116100e9578063313ce567146101b757806339509351146101d557806340c10f191461020557806370a0823114610221578063715018a61461025157610116565b806306fdde031461011b578063095ea7b31461013957806318160ddd1461016957806323b872dd14610187575b600080fd5b6101236103ab565b6040516101309190611a1c565b60405180910390f35b610153600480360381019061014e9190611724565b61043d565b6040516101609190611a01565b60405180910390f35b61017161045b565b60405161017e9190611c1e565b60405180910390f35b6101a1600480360381019061019c9190611691565b610465565b6040516101ae9190611a01565b60405180910390f35b6101bf61055d565b6040516101cc9190611c39565b60405180910390f35b6101ef60048036038101906101ea9190611724565b610566565b6040516101fc9190611a01565b60405180910390f35b61021f600480360381019061021a9190611724565b610612565b005b61023b60048036038101906102369190611624565b61069c565b6040516102489190611c1e565b60405180910390f35b6102596106e4565b005b61026361076c565b60405161027091906119e6565b60405180910390f35b610293600480360381019061028e91906116e4565b610796565b005b61029d6108bb565b6040516102aa9190611a1c565b60405180910390f35b6102cd60048036038101906102c89190611724565b61094d565b005b6102e960048036038101906102e49190611724565b6109d7565b6040516102f69190611a01565b60405180910390f35b61031960048036038101906103149190611724565b610ac2565b6040516103269190611a01565b60405180910390f35b61034960048036038101906103449190611651565b610ae0565b6040516103569190611c1e565b60405180910390f35b61037960048036038101906103749190611624565b610b67565b6040516103869190611a01565b60405180910390f35b6103a960048036038101906103a49190611624565b610bbd565b005b6060600380546103ba90611d82565b80601f01602080910402602001604051908101604052809291908181526020018280546103e690611d82565b80156104335780601f1061040857610100808354040283529160200191610433565b820191906000526020600020905b81548152906001019060200180831161041657829003601f168201915b5050505050905090565b600061045161044a610cb5565b8484610cbd565b6001905092915050565b6000600254905090565b6000610472848484610e88565b6000600160008673ffffffffffffffffffffffffffffffffffffffff1673ffffffffffffffffffffffffffffffffffffffff16815260200190815260200160002060006104bd610cb5565b73ffffffffffffffffffffffffffffffffffffffff1673ffffffffffffffffffffffffffffffffffffffff1681526020019081526020016000205490508281101561053d576040517f08c379a000000000000000000000000000000000000000000000000000000000815260040161053490611afe565b60405180910390fd5b61055185610549610cb5565b858403610cbd565b60019150509392505050565b60006012905090565b6000610608610573610cb5565b848460016000610581610cb5565b73ffffffffffffffffffffffffffffffffffffffff1673ffffffffffffffffffffffffffffffffffffffff16815260200190815260200160002060008873ffffffffffffffffffffffffffffffffffffffff1673ffffffffffffffffffffffffffffffffffffffff168152602001908152602001600020546106039190611c70565b610cbd565b6001905092915050565b61061a610cb5565b73ffffffffffffffffffffffffffffffffffffffff1661063861076c565b73ffffffffffffffffffffffffffffffffffffffff161461068e576040517f08c379a000000000000000000000000000000000000000000000000000000000815260040161068590611b1e565b60405180910390fd5b6106988282611109565b5050565b60008060008373ffffffffffffffffffffffffffffffffffffffff1673ffffffffffffffffffffffffffffffffffffffff168152602001908152602001600020549050919050565b6106ec610cb5565b73ffffffffffffffffffffffffffffffffffffffff1661070a61076c565b73ffffffffffffffffffffffffffffffffffffffff1614610760576040517f08c379a000000000000000000000000000000000000000000000000000000000815260040161075790611b1e565b60405180910390fd5b61076a6000611269565b565b6000600560009054906101000a900473ffffffffffffffffffffffffffffffffffffffff16905090565b61079e610cb5565b73ffffffffffffffffffffffffffffffffffffffff166107bc61076c565b73ffffffffffffffffffffffffffffffffffffffff1614610812576040517f08c379a000000000000000000000000000000000000000000000000000000000815260040161080990611b1e565b60405180910390fd5b80600660008473ffffffffffffffffffffffffffffffffffffffff1673ffffffffffffffffffffffffffffffffffffffff16815260200190815260200160002060006101000a81548160ff0219169083151502179055508173ffffffffffffffffffffffffffffffffffffffff167f6a12b3df6cba4203bd7fd06b816789f87de8c594299aed5717ae070fac781bac826040516108af9190611a01565b60405180910390a25050565b6060600480546108ca90611d82565b80601f01602080910402602001604051908101604052809291908181526020018280546108f690611d82565b80156109435780601f1061091857610100808354040283529160200191610943565b820191906000526020600020905b81548152906001019060200180831161092657829003601f168201915b5050505050905090565b610955610cb5565b73ffffffffffffffffffffffffffffffffffffffff1661097361076c565b73ffffffffffffffffffffffffffffffffffffffff16146109c9576040517f08c379a00000000000000000000000000000000000000000000000000000000081526004016109c090611b1e565b60405180910390fd5b6109d3828261132f565b5050565b600080600160006109e6610cb5565b73ffffffffffffffffffffffffffffffffffffffff1673ffffffffffffffffffffffffffffffffffffffff16815260200190815260200160002060008573ffffffffffffffffffffffffffffffffffffffff1673ffffffffffffffffffffffffffffffffffffffff16815260200190815260200160002054905082811015610aa3576040517f08c379a0000000000000000000000000000000000000000000000000000000008152600401610a9a90611bde565b60405180910390fd5b610ab7610aae610cb5565b85858403610cbd565b600191505092915050565b6000610ad6610acf610cb5565b8484610e88565b6001905092915050565b6000600160008473ffffffffffffffffffffffffffffffffffffffff1673ffffffffffffffffffffffffffffffffffffffff16815260200190815260200160002060008373ffffffffffffffffffffffffffffffffffffffff1673ffffffffffffffffffffffffffffffffffffffff16815260200190815260200160002054905092915050565b6000600660008373ffffffffffffffffffffffffffffffffffffffff1673ffffffffffffffffffffffffffffffffffffffff16815260200190815260200160002060009054906101000a900460ff169050919050565b610bc5610cb5565b73ffffffffffffffffffffffffffffffffffffffff16610be361076c565b73ffffffffffffffffffffffffffffffffffffffff1614610c39576040517f08c379a0000000000000000000000000000000000000000000000000000000008152600401610c3090611b1e565b60405180910390fd5b600073ffffffffffffffffffffffffffffffffffffffff168173ffffffffffffffffffffffffffffffffffffffff161415610ca9576040517f08c379a0000000000000000000000000000000000000000000000000000000008152600401610ca090611a7e565b60405180910390fd5b610cb281611269565b50565b600033905090565b600073ffffffffffffffffffffffffffffffffffffffff168373ffffffffffffffffffffffffffffffffffffffff161415610d2d576040517f08c379a0000000000000000000000000000000000000000000000000000000008152600401610d2490611bbe565b60405180910390fd5b600073ffffffffffffffffffffffffffffffffffffffff168273ffffffffffffffffffffffffffffffffffffffff161415610d9d576040517f08c379a0000000000000000000000000000000000000000000000000000000008152600401610d9490611a9e565b60405180910390fd5b80600160008573ffffffffffffffffffffffffffffffffffffffff1673ffffffffffffffffffffffffffffffffffffffff16815260200190815260200160002060008473ffffffffffffffffffffffffffffffffffffffff1673ffffffffffffffffffffffffffffffffffffffff168152602001908152602001600020819055508173ffffffffffffffffffffffffffffffffffffffff168373ffffffffffffffffffffffffffffffffffffffff167f8c5be1e5ebec7d5bd14f71427d1e84f3dd0314c0f7b2291e5b200ac8c7c3b92583604051610e7b9190611c1e565b60405180910390a3505050565b600073ffffffffffffffffffffffffffffffffffffffff168373ffffffffffffffffffffffffffffffffffffffff161415610ef8576040517f08c379a0000000000000000000000000000000000000000000000000000000008152600401610eef90611b9e565b60405180910390fd5b600073ffffffffffffffffffffffffffffffffffffffff168273ffffffffffffffffffffffffffffffffffffffff161415610f68576040517f08c379a0000000000000000000000000000000000000000000000000000000008152600401610f5f90611a3e565b60405180910390fd5b610f73838383611506565b60008060008573ffffffffffffffffffffffffffffffffffffffff1673ffffffffffffffffffffffffffffffffffffffff16815260200190815260200160002054905081811015610ff9576040517f08c379a0000000000000000000000000000000000000000000000000000000008152600401610ff090611abe565b60405180910390fd5b8181036000808673ffffffffffffffffffffffffffffffffffffffff1673ffffffffffffffffffffffffffffffffffffffff16815260200190815260200160002081905550816000808573ffffffffffffffffffffffffffffffffffffffff1673ffffffffffffffffffffffffffffffffffffffff168152602001908152602001600020600082825461108c9190611c70565b925050819055508273ffffffffffffffffffffffffffffffffffffffff168473ffffffffffffffffffffffffffffffffffffffff167fddf252ad1be2c89b69c2b068fc378daa952ba7f163c4a11628f55a4df523b3ef846040516110f09190611c1e565b60405180910390a36111038484846115e0565b50505050565b600073ffffffffffffffffffffffffffffffffffffffff168273ffffffffffffffffffffffffffffffffffffffff161415611179576040517f08c379a000000000000000000000000000000000000000000000000000000000815260040161117090611bfe565b60405180910390fd5b61118560008383611506565b80600260008282546111979190611c70565b92505081905550806000808473ffffffffffffffffffffffffffffffffffffffff1673ffffffffffffffffffffffffffffffffffffffff16815260200190815260200160002060008282546111ec9190611c70565b925050819055508173ffffffffffffffffffffffffffffffffffffffff16600073ffffffffffffffffffffffffffffffffffffffff167fddf252ad1be2c89b69c2b068fc378daa952ba7f163c4a11628f55a4df523b3ef836040516112519190611c1e565b60405180910390a3611265600083836115e0565b5050565b6000600560009054906101000a900473ffffffffffffffffffffffffffffffffffffffff16905081600560006101000a81548173ffffffffffffffffffffffffffffffffffffffff021916908373ffffffffffffffffffffffffffffffffffffffff1602179055508173ffffffffffffffffffffffffffffffffffffffff168173ffffffffffffffffffffffffffffffffffffffff167f8be0079c531659141344cd1fd0a4f28419497f9722a3daafe3b4186f6b6457e060405160405180910390a35050565b600073ffffffffffffffffffffffffffffffffffffffff168273ffffffffffffffffffffffffffffffffffffffff16141561139f576040517f08c379a000000000000000000000000000000000000000000000000000000000815260040161139690611b5e565b60405180910390fd5b6113ab82600083611506565b60008060008473ffffffffffffffffffffffffffffffffffffffff1673ffffffffffffffffffffffffffffffffffffffff16815260200190815260200160002054905081811015611431576040517f08c379a000000000000000000000000000000000000000000000000000000000815260040161142890611a5e565b60405180910390fd5b8181036000808573ffffffffffffffffffffffffffffffffffffffff1673ffffffffffffffffffffffffffffffffffffffff1681526020019081526020016000208190555081600260008282546114889190611cc6565b92505081905550600073ffffffffffffffffffffffffffffffffffffffff168373ffffffffffffffffffffffffffffffffffffffff167fddf252ad1be2c89b69c2b068fc378daa952ba7f163c4a11628f55a4df523b3ef846040516114ed9190611c1e565b60405180910390a3611501836000846115e0565b505050565b60008111611549576040517f08c379a000000000000000000000000000000000000000000000000000000000815260040161154090611ade565b60405180910390fd5b61155283610b67565b15611592576040517f08c379a000000000000000000000000000000000000000000000000000000000815260040161158990611b7e565b60405180910390fd5b61159b82610b67565b156115db576040517f08c379a00000000000000000000000000000000000000000000000000000000081526004016115d290611b3e565b60405180910390fd5b505050565b505050565b6000813590506115f48161220b565b92915050565b60008135905061160981612222565b92915050565b60008135905061161e81612239565b92915050565b60006020828403121561163a57611639611e12565b5b6000611648848285016115e5565b91505092915050565b6000806040838503121561166857611667611e12565b5b6000611676858286016115e5565b9250506020611687858286016115e5565b9150509250929050565b6000806000606084860312156116aa576116a9611e12565b5b60006116b8868287016115e5565b93505060206116c9868287016115e5565b92505060406116da8682870161160f565b9150509250925092565b600080604083850312156116fb576116fa611e12565b5b6000611709858286016115e5565b925050602061171a858286016115fa565b9150509250929050565b6000806040838503121561173b5761173a611e12565b5b6000611749858286016115e5565b925050602061175a8582860161160f565b9150509250929050565b61176d81611cfa565b82525050565b61177c81611d0c565b82525050565b600061178d82611c54565b6117978185611c5f565b93506117a7818560208601611d4f565b6117b081611e17565b840191505092915050565b60006117c8602383611c5f565b91506117d382611e28565b604082019050919050565b60006117eb602283611c5f565b91506117f682611e77565b604082019050919050565b600061180e602683611c5f565b915061181982611ec6565b604082019050919050565b6000611831602283611c5f565b915061183c82611f15565b604082019050919050565b6000611854602683611c5f565b915061185f82611f64565b604082019050919050565b6000611877601c83611c5f565b915061188282611fb3565b602082019050919050565b600061189a602883611c5f565b91506118a582611fdc565b604082019050919050565b60006118bd602083611c5f565b91506118c88261202b565b602082019050919050565b60006118e0601883611c5f565b91506118eb82612054565b602082019050919050565b6000611903602183611c5f565b915061190e8261207d565b604082019050919050565b6000611926601683611c5f565b9150611931826120cc565b602082019050919050565b6000611949602583611c5f565b9150611954826120f5565b604082019050919050565b600061196c602483611c5f565b915061197782612144565b604082019050919050565b600061198f602583611c5f565b915061199a82612193565b604082019050919050565b60006119b2601f83611c5f565b91506119bd826121e2565b602082019050919050565b6119d181611d38565b82525050565b6119e081611d42565b82525050565b60006020820190506119fb6000830184611764565b92915050565b6000602082019050611a166000830184611773565b92915050565b60006020820190508181036000830152611a368184611782565b905092915050565b60006020820190508181036000830152611a57816117bb565b9050919050565b60006020820190508181036000830152611a77816117de565b9050919050565b60006020820190508181036000830152611a9781611801565b9050919050565b60006020820190508181036000830152611ab781611824565b9050919050565b60006020820190508181036000830152611ad781611847565b9050919050565b60006020820190508181036000830152611af78161186a565b9050919050565b60006020820190508181036000830152611b178161188d565b9050919050565b60006020820190508181036000830152611b37816118b0565b9050919050565b60006020820190508181036000830152611b57816118d3565b9050919050565b60006020820190508181036000830152611b77816118f6565b9050919050565b60006020820190508181036000830152611b9781611919565b9050919050565b60006020820190508181036000830152611bb78161193c565b9050919050565b60006020820190508181036000830152611bd78161195f565b9050919050565b60006020820190508181036000830152611bf781611982565b9050919050565b60006020820190508181036000830152611c17816119a5565b9050919050565b6000602082019050611c3360008301846119c8565b92915050565b6000602082019050611c4e60008301846119d7565b92915050565b600081519050919050565b600082825260208201905092915050565b6000611c7b82611d38565b9150611c8683611d38565b9250827fffffffffffffffffffffffffffffffffffffffffffffffffffffffffffffffff03821115611cbb57611cba611db4565b5b828201905092915050565b6000611cd182611d38565b9150611cdc83611d38565b925082821015611cef57611cee611db4565b5b828203905092915050565b6000611d0582611d18565b9050919050565b60008115159050919050565b600073ffffffffffffffffffffffffffffffffffffffff82169050919050565b6000819050919050565b600060ff82169050919050565b60005b83811015611d6d578082015181840152602081019050611d52565b83811115611d7c576000848401525b50505050565b60006002820490506001821680611d9a57607f821691505b60208210811415611dae57611dad611de3565b5b50919050565b7f4e487b7100000000000000000000000000000000000000000000000000000000600052601160045260246000fd5b7f4e487b7100000000000000000000000000000000000000000000000000000000600052602260045260246000fd5b600080fd5b6000601f19601f8301169050919050565b7f45524332303a207472616e7366657220746f20746865207a65726f206164647260008201527f6573730000000000000000000000000000000000000000000000000000000000602082015250565b7f45524332303a206275726e20616d6f756e7420657863656564732062616c616e60008201527f6365000000000000000000000000000000000000000000000000000000000000602082015250565b7f4f776e61626c653a206e6577206f776e657220697320746865207a65726f206160008201527f6464726573730000000000000000000000000000000000000000000000000000602082015250565b7f45524332303a20617070726f766520746f20746865207a65726f20616464726560008201527f7373000000000000000000000000000000000000000000000000000000000000602082015250565b7f45524332303a207472616e7366657220616d6f756e742065786365656473206260008201527f616c616e63650000000000000000000000000000000000000000000000000000602082015250565b7f43616e6e6f74207472616e73666572207a65726f20746f6b656e732e00000000600082015250565b7f45524332303a207472616e7366657220616d6f756e742065786365656473206160008201527f6c6c6f77616e6365000000000000000000000000000000000000000000000000602082015250565b7f4f776e61626c653a2063616c6c6572206973206e6f7420746865206f776e6572600082015250565b7f5265636569766572206973206f6e20626c61636b6c6973740000000000000000600082015250565b7f45524332303a206275726e2066726f6d20746865207a65726f2061646472657360008201527f7300000000000000000000000000000000000000000000000000000000000000602082015250565b7f53656e646572206973206f6e20626c61636b6c69737400000000000000000000600082015250565b7f45524332303a207472616e736665722066726f6d20746865207a65726f20616460008201527f6472657373000000000000000000000000000000000000000000000000000000602082015250565b7f45524332303a20617070726f76652066726f6d20746865207a65726f2061646460008201527f7265737300000000000000000000000000000000000000000000000000000000602082015250565b7f45524332303a2064656372656173656420616c6c6f77616e63652062656c6f7760008201527f207a65726f000000000000000000000000000000000000000000000000000000602082015250565b7f45524332303a206d696e7420746f20746865207a65726f206164647265737300600082015250565b61221481611cfa565b811461221f57600080fd5b50565b61222b81611d0c565b811461223657600080fd5b50565b61224281611d38565b811461224d57600080fd5b5056fea26469706673582212203c8ab553f19220b480b81db634e46577e8846176ad6b5c6d1d4598e0ad287f8964736f6c63430008060033",
  "immutableReferences": {},
  "source": "// SPDX-License-Identifier: MIT\n\npragma solidity ^0.8.6;\n\nimport \"@openzeppelin/contracts/utils/Context.sol\";\nimport \"@openzeppelin/contracts/access/Ownable.sol\";\nimport \"@openzeppelin/contracts/token/ERC20/ERC20.sol\";\n\nabstract contract BlackList is Ownable {\n    mapping(address => bool) private _blacklist;\n\n    event BlacklistUpdated(address indexed user, bool value);\n\n    function isBlackListed(address user) public view returns (bool) {\n        return _blacklist[user];\n    }\n\n    function updateBlacklist(address user, bool value) external onlyOwner {\n        _blacklist[user] = value;\n        emit BlacklistUpdated(user, value);\n    }\n}\n\ncontract CBTToken is ERC20, BlackList {\n    constructor() ERC20(\"Crypto Bank Token\", \"CBT\") {\n        _mint(_msgSender(), 770e9);\n    }\n\n    function mint(address to, uint256 amount) external onlyOwner {\n        _mint(to, amount);\n    }\n\n    function burn(address from, uint256 amount) external onlyOwner {\n        _burn(from, amount);\n    }\n\n    function _beforeTokenTransfer(\n        address from,\n        address to,\n        uint256 amount\n    ) internal view override(ERC20) {\n        require(amount > 0, \"Cannot transfer zero tokens.\");\n        require(!isBlackListed(from), \"Sender is on blacklist\");\n        require(!isBlackListed(to), \"Receiver is on blacklist\");\n    }\n}\n",
  "sourcePath": "/Users/markyosef/Downloads/CBTToken/contracts/CBTToken.sol",
  "compiler": {
    "name": "solc",
    "version": "0.8.6+commit.11564f7e.Emscripten.clang"
  },
  "schemaVersion": "3.4.3",
  "updatedAt": "2021-10-26T20:44:51.311Z",
  "devdoc": {
    "kind": "dev",
    "methods": {
      "allowance(address,address)": {
        "details": "See {IERC20-allowance}."
      },
      "approve(address,uint256)": {
        "details": "See {IERC20-approve}. Requirements: - `spender` cannot be the zero address."
      },
      "balanceOf(address)": {
        "details": "See {IERC20-balanceOf}."
      },
      "decimals()": {
        "details": "Returns the number of decimals used to get its user representation. For example, if `decimals` equals `2`, a balance of `505` tokens should be displayed to a user as `5.05` (`505 / 10 ** 2`). Tokens usually opt for a value of 18, imitating the relationship between Ether and Wei. This is the value {ERC20} uses, unless this function is overridden; NOTE: This information is only used for _display_ purposes: it in no way affects any of the arithmetic of the contract, including {IERC20-balanceOf} and {IERC20-transfer}."
      },
      "decreaseAllowance(address,uint256)": {
        "details": "Atomically decreases the allowance granted to `spender` by the caller. This is an alternative to {approve} that can be used as a mitigation for problems described in {IERC20-approve}. Emits an {Approval} event indicating the updated allowance. Requirements: - `spender` cannot be the zero address. - `spender` must have allowance for the caller of at least `subtractedValue`."
      },
      "increaseAllowance(address,uint256)": {
        "details": "Atomically increases the allowance granted to `spender` by the caller. This is an alternative to {approve} that can be used as a mitigation for problems described in {IERC20-approve}. Emits an {Approval} event indicating the updated allowance. Requirements: - `spender` cannot be the zero address."
      },
      "name()": {
        "details": "Returns the name of the token."
      },
      "owner()": {
        "details": "Returns the address of the current owner."
      },
      "renounceOwnership()": {
        "details": "Leaves the contract without owner. It will not be possible to call `onlyOwner` functions anymore. Can only be called by the current owner. NOTE: Renouncing ownership will leave the contract without an owner, thereby removing any functionality that is only available to the owner."
      },
      "symbol()": {
        "details": "Returns the symbol of the token, usually a shorter version of the name."
      },
      "totalSupply()": {
        "details": "See {IERC20-totalSupply}."
      },
      "transfer(address,uint256)": {
        "details": "See {IERC20-transfer}. Requirements: - `recipient` cannot be the zero address. - the caller must have a balance of at least `amount`."
      },
      "transferFrom(address,address,uint256)": {
        "details": "See {IERC20-transferFrom}. Emits an {Approval} event indicating the updated allowance. This is not required by the EIP. See the note at the beginning of {ERC20}. Requirements: - `sender` and `recipient` cannot be the zero address. - `sender` must have a balance of at least `amount`. - the caller must have allowance for ``sender``'s tokens of at least `amount`."
      },
      "transferOwnership(address)": {
        "details": "Transfers ownership of the contract to a new account (`newOwner`). Can only be called by the current owner."
      }
    },
    "version": 1
  },
  "userdoc": {
    "kind": "user",
    "methods": {},
    "version": 1
  }
}